:020000040000FA
:0600000005EF0FF01200F5
:02102A000000C4
:04102C00D9CFE6FF33
:10103000E1CFD9FF660EE126080EDB6A090EDB6AF6
:10104000D950340FE96EDACFEAFF540EEE6E650E1A
:10105000EE6E6D0EEE6E700EEE6E3A0EEE6EEE6A87
:10106000D9503A0FE96EDACFEAFF4D0EEE6E6F0EF1
:10107000EE6E690EEE6E730EEE6E740EEE6E750E03
:10108000EE6E720EEE6E650EEE6E3A0EEE6EEE6A5D
:10109000D950440FE96EDACFEAFF4D0EEE6E6F0EB7
:1010A000EE6E740EEE6E6F0EEE6E720EEE6E200E23
:1010B000EE6E4F0EEE6E4E0EEE6EEE6AD9504D0F86
:1010C000E96EDACFEAFF4D0EEE6E6F0EEE6E740E25
:1010D000EE6E6F0EEE6E720EEE6E200EEE6E4F0E18
:1010E000EE6E460EEE6EEE6EEE6AD950570FE96E5A
:1010F000DACFEAFF460EEE6E410EEE6E4E0EEE6E4B
:10110000200EEE6E4F0EEE6E4E0EEE6EEE6AD95063
:101110005E0FE96EDACFEAFF460EEE6E410EEE6E1E
:101120004E0EEE6E200EEE6E4F0EEE6E460EEE6E14
:10113000EE6EEE6A0F0EC16E956A966A946A9280A0
:1011400092829284E0DA60DB8F0EE66E86DBE552F7
:101150000F0EE66EE66A1DDBE552E552070EE66EFF
:101160007CDBE552D950080FE96EDACFEAFFEE508A
:10117000ED1001E06AD1C7DA010EE66E6EDBE552D2
:101180000F0EE66EE66A05DBE552E552060EE66EE8
:1011900064DBE5520F0EE66EE66AFBDAE552E552D5
:1011A000800EE66E5ADBE5520001D950340F6A6FAB
:1011B000DACF6BF07CDBBEDABFDA060EF3CFDBFFF3
:1011C000070EF4CFDBFF060EDBCF18F0070EDBCFE8
:1011D00019F01A6A1B6A18C006F019C007F01AC085
:1011E00008F01BC009F0A5EC0CF007C014F008C013
:1011F00015F009C016F00AC017F00C6A0D6AFA0E55
:101200000E6E430E0F6E14C007F015C008F016C026
:1012100009F017C00AF011EC0DF0D3EC0DF00C0E34
:1012200006C0DBFF0D0E07C0DBFF0E0E08C0DBFFA4
:101230000F0E09C0DBFF0C0EDBCF18F00D0EDBCF5D
:1012400019F00E0EDBCF1AF00F0EDBCF1BF018C01B
:1012500006F019C007F01AC008F01BC009F0A3EC93
:101260000CF007C014F008C015F009C016F00AC051
:1012700017F00C6A0D6A800E0E6E440E0F6E14C0CD
:1012800007F015C008F016C009F017C00AF0BEEC50
:101290000CF0A4EC0DF0060E08C0DBFF070E09C031
:1012A000DBFF060EDBCF14F0070EDBCF15F0280EA8
:1012B000145C000E15580DE2C00EE66ECEDAE55253
:1012C0000001D9505E0F6A6FDACF6BF0F0DA8292CC
:1012D0000CD0C00EE66EC1DAE5520001D950570FAE
:1012E0006A6FDACF6BF0E3DA8282850EE66EB5DAEA
:1012F000E552E80E146E030E156E060EDBCF08F0F5
:10130000070EDBCF09F014C00DF015C00EF0DFECB6
:101310000EF00850DF6E640E146E156A060EDBCFF9
:1013200008F0070EDBCF09F014C00DF015C00EF069
:10133000DFEC0EF00850DF6E300EDF24E76E030E98
:10134000E7CFDBFFDBCFE6FF9DDAE552060EDBCF12
:1013500014F0070EDBCF15F0640E0D6E0E6A14C08C
:1013600008F015C009F0DFEC0EF004C014F005C061
:1013700015F00A0E0D6E0E6A14C008F015C009F0C3
:10138000DFEC0EF008C014F009C015F01450DF6E49
:10139000300EDF24E76E040EE7CFDBFFDBCFE6FF86
:1013A00071DAE552060EDBCF14F0070EDBCF15F035
:1013B0000A0E0D6E0E6A14C008F015C009F0DFECBD
:1013C0000EF004C014F005C015F01450DF6E1E0EB0
:1013D000DF24E76E050EE7CFDBFF300EDF24E66E7D
:1013E00051DAE5522E0EE66E4DDAE552300EE66E1B
:1013F00049DAE552200EE66E45DAE552440EE66E15
:1014000041DAE552650EE66E3DDAE552670EE66EAC
:1014100039DAE552200EE66E35DAE552430EE66E15
:1014200031DAE552C00EE66E18DAE552010EF36EBF
:10143000080EF3CFDBFF090EDB6A2C0EE66E010E01
:10144000E66EA7D9E552E55253D1D950080FE96E9F
:10145000DACFEAFF010EEE1801E1ED5001E048D1CC
:1014600061D9010EE66EF9D9E552800EE66EF5D926
:10147000E5520001D9503A0F6A6FDACF6BF017DAF4
:1014800059D95AD9200EF3CFDBFF210EF4CFDBFF61
:10149000200EDBCF08F0210EDBCF09F090EC0CF032
:1014A00007C014F008C015F009C016F00AC017F004
:1014B0006F0E0C6E120E0D6E830E0E6E3F0E0F6EC3
:1014C00014C007F015C008F016C009F017C00AF0E4
:1014D000BEEC0CF0280E07C0DBFF290E08C0DBFFB6
:1014E0002A0E09C0DBFF2B0E0AC0DBFFD950280FE4
:1014F000E96EDACFEAFF300EEECFDBFF310EEECF32
:10150000DBFF320EEECFDBFF330EEECFDBFF300E14
:10151000DBCF07F0310EDBCF08F0320EDBCF09F066
:10152000330EDBCF0AF0A4EC0DF0220E08C0DBFF77
:10153000230E09C0DBFF890EE66E8FD9E552E80E57
:10154000146E030E156E220EDBCF08F0230EDBCFD8
:1015500009F014C00DF015C00EF07EEC0DF008502F
:10156000DF6E300EDF24E76E020EE7CFDBFF220EC8
:10157000DBCF14F0230EDBCF15F0E80E0D6E030E5B
:101580000E6E14C008F015C009F07EEC0DF004C01A
:1015900014F005C015F0640E0D6E0E6A14C008F04C
:1015A00015C009F07EEC0DF008C014F009C015F06C
:1015B0001450DF6E300EDF24E76E030EE7CFDBFF43
:1015C000DBCFE6FF5FD9E552220EDBCF14F0230E0E
:1015D000DBCF15F0E80E0D6E030E0E6E14C008F092
:1015E00015C009F07EEC0DF004C014F005C015F034
:1015F000640E0D6E0E6A14C008F015C009F07EEC82
:101600000DF004C014F005C015F00A0E0D6E0E6A40
:1016100014C008F015C009F07EEC0DF008C014F0FD
:1016200009C015F01450DF6E300EDF24E76E040E93
:10163000E7CFDBFFDBCFE6FF25D9E5522E0EE66EC6
:1016400021D9E552220EDBCF14F0230EDBCF15F0AB
:101650000A0E0D6E0E6A14C008F015C009F07EEC7B
:101660000DF004C014F005C015F01450DF6E1E0E0E
:10167000DF24E76E050EE7CFDBFF300EDF24E66EDA
:1016800001D9E552250EE66EFDD8E552220EDBCFDC
:1016900014F0230EDBCF15F0D890155004E62C0E75
:1016A000145C010E15580DE2C00EE66ED6D8E55258
:1016B0000001D950440F6A6FDACF6BF0F8D88280FE
:1016C0000CD0C00EE66EC9D8E5520001D9504D0FBE
:1016D0006A6FDACF6BF0EBD88290080EDB6A090EE6
:1016E000DB6A2C0EE66E010EE66E53D8E552E5522B
:1016F00039D5660EE15C02E2E16AE552E16EE5523F
:10170000E7CFD9FF1200C26A0E0EC16E8E0EC06EF8
:10171000C2801200040EC26E0D0EC16E8E0EC06E1F
:10172000C2801200080EC26E0C0EC16E8E0EC06E0C
:10173000C2801200C2821200D9CFE6FFE1CFD9FFEA
:10174000020EE126DE6ADD6AC2B2FED7C350DE6E4B
:10175000DD6AC450146E14C015F0146AD9CFE9FFC5
:10176000DACFEAFF1450EE121550ED12DECF14F06E
:10177000DDCF15F014C0F3FF15C0F4FF020EE15CDD
:1017800003E200D0E16AE552E16EE552E7CFD9FF0E
:101790001200D9CFE6FFE1CFD9FF040EE126DE6AC1
:1017A000DD6ADECF14F0DDCF15F0FD0EDBCF16F0D5
:1017B000FE0EDBCF17F01650145C175015581AE2C6
:1017C000020EDB6A030EDB6A020EDBCF14F0030E9F
:1017D000DBCF15F0C60E145C020E155806E2020EA1
:1017E000DB2A030E01E3DB2AEFD7DF2A010E01E338
:1017F000DB2AD7D7040EE15C02E2E16AE552E16E32
:10180000E552E7CFD9FF1200380EE66E26D8E55232
:101810000F0EE66EE66ABDDFE552E552010EE66E9A
:101820001CD8E5520F0EE66EE66AB3DFE552E552CC
:101830000C0EE66E12D8E5520F0EE66EE66AA9DFD0
:10184000E552E552060EE66E08D8E5520F0EE66E3A
:10185000E66A9FDFE552E5521200D9CFE6FFE1CFFD
:10186000D9FFFE0EDB50836E8490849284840F0E29
:10187000E66EE66A8EDFE552E5528494E552E7CFE4
:10188000D9FF1200D9CFE6FFE1CFD9FFFE0EDB5022
:10189000836E8480849284840F0EE66EE66A79DF1C
:1018A000E552E5528494E552E7CFD9FF1200D9CF33
:1018B000E6FFE1CFD9FF020EE126DE6ADD6ADE50E7
:1018C00000016A250F01E96EDD5000016B210F0157
:1018D000EA6EEF5019E0DE5000016A250F01E96E53
:1018E000DD5000016B210F01EA6EEF50E66ECADF9A
:1018F000E5520F0EE66EE66A4CDFE552E552DF2A4E
:10190000010E01E3DB2ADBD7020EE15C02E2E16AB1
:0C191000E552E16EE552E7CFD9FF12006E
:04191C00019E08D050
:10192000019E09AE05D0086C091EE86A0922018EE5
:1019300009C003F008C002F0136A126A8E0E046E2A
:10194000056A26EF0EF0019E0CD0019E09AE09D06B
:10195000066C071E081E091EE86A072208220922D3
:10196000018E09C003F008C002F007C013F006C0E2
:1019700012F09E0E046E056A26EF0EF0016A62EC0C
:101980000EF07AEC0EF001B60AEF0EF001A205D0CF
:1019900001BA0AEF0EF011EF0EF001BA1DEF0EF0D2
:1019A00001A005D001B80AEF0EF01DEF0EF001B84E
:1019B00011EF0EF0056A7F0E0A24046EE86A052214
:1019C0000F50045EE86A055A1A0E106E0A6A126A0F
:1019D000136A026A036A0C50075E0D50085A0E50D3
:1019E000095A000E0A5A09E70C5007260D50082222
:1019F0000E500922000E0A2201D0128AD890073612
:101A0000083609360A36D8901236133602360336AF
:101A1000102EE1D7095008100710D8A4128A26EF1B
:101A20000EF0016A62EC0EF07AEC0EF001B60AEFED
:101A30000EF001A205D001B80AEF0EF011EF0EF082
:101A400001AA05D001B00AEF0EF011EF0EF001B0BF
:101A500002D001A802D01DEF0EF0056A0F500A2433
:101A6000046EE86A05227E0E045EE86A055A126A70
:101A7000136A026A036A0E500902F4CF03F0F3CF2F
:101A800002F00D500902F3501326F4500222000E0A
:101A900003220E500802F3501326F4500222000EC7
:101AA00003220C500902F3501226F4501322000EA8
:101AB000022203220D500802F3501226F450132282
:101AC000000E022203220E500702F3501226F45099
:101AD0001322000E022203220C500802F450122698
:101AE000000E1322022203220D500702F450122688
:101AF000000E13220222032226EF0EF0006A0EAE21
:101B000087EF0DF00D6C0E1EE86A0E22001E09AE66
:101B10008FEF0DF0086C091EE86A0922001EDFEC49
:101B20000EF009BE9FEF0DF000AE000C086C091E10
:101B3000E86A0922046C051EE86A0522000C00BE52
:101B400096EF0DF00188FF0C016A62EC0EF001B611
:101B5000AEEF0DF001A20ED001B405D07F0E096EDC
:101B6000FF0E086E1FD0800E096E086A1BD0096A2E
:101B7000086A18D001B0FBD78F0E0A60EDD77E0E31
:101B80000A64F5D78E0E0A5C05E0D8900932083257
:101B90000A2AF8D701A406D0086C091EE86A0922AF
:101BA00009AEE5D71200016A62EC0EF001B6DDEF76
:101BB0000DF001A20FD001B407D07F0E096EFF0E09
:101BC000086E076E066E25D0800E096E01D0096A78
:101BD000000EF6D701B0FBD7066A9F0E0A60EBD75E
:101BE0007E0E0A64F4D79E0E0A5C07E0D890093294
:101BF0000832073206320A2AF6D701A40AD0066C48
:101C0000071E081E091EE86A07220822092209AEDB
:101C1000DED712007F0E0A6EFF0E096E086E076E89
:101C200012007F0E01BEFF0E0A6E02D07F0E0A6EFA
:101C3000800E096E086A076AF3D701AE04D0800EE1
:101C40000A6E096AF7D70A6A096AF4D703500210C4
:101C500013101210F8E005BEF0D703BE0CD00450EC
:101C60000510EBE0D8901236133602360336040620
:101C7000D8A00506F2D70550D4E10428D2E012AE70
:101C800011D07F0E121402E113A00CD0132AE86ABF
:101C90000222032207E3D880033202321332042ADD
:101CA0000428BFE00450C9E013C007F002C008F0E8
:101CB0000334096E04300A6E09320A9E01BE0A8E90
:101CC00010EF0EF009360A3602E30184017E06E1C8
:101CD00001800A6A096A086A076A12000A2803E092
:101CE000D88009321200D890093202E10182120034
:101CF000018612000E360F3602E3018C017E06E1EA
:101D000001880F6A0E6A0D6A0C6A12000F2803E040
:101D1000D8800E321200D8900E32EAE1018A120009
:101D20002A0EF66E100EF76E000EF86E0001090016
:101D3000F550656F0900F550666F03E1656701D0E6
:101D40003DD00900F550606F0900F550616F090042
:101D5000F550626F09000900F550E96E0900F55071
:101D6000EA6E090009000900F550636F0900F5509B
:101D7000646F09000900F6CF67F0F7CF68F0F8CF7D
:101D800069F060C0F6FF61C0F7FF62C0F8FF0001B4
:101D9000635302E1645307E00900F550EE6E6307F8
:101DA000F8E26407F9D767C0F6FF68C0F7FF69C0BB
:0E1DB000F8FF00016507000E665BBFD712004A
:021DBE00056AB4
:101DC000046A100EE76ED8900836093604360536D8
:101DD0000D50045C0E50055805E30D50045E0E5086
:0A1DE000055A082AE72EF0D712007A
:061DEA00000EF36E00EE96
:101DF00000F0040E01D81200EA6002D0EE6AFCD7AF
:0A1E0000F350E9601200EE6AFCD70F
:061E0A0013EE00F023EED0
:101E100000F0F86A019C90EC0EF013EC0FF016EC59
:061E200008F0FBD71200E0
:021E26001200A8
:020000040030CA
:010001000CF2
:010003001EDE
:010005008179
:010006008178
:00000001FF
